{
  "contractName": "Crud",
  "abi": [
    {
      "inputs": [
        {
          "internalType": "uint256",
          "name": "",
          "type": "uint256"
        }
      ],
      "name": "users",
      "outputs": [
        {
          "internalType": "uint256",
          "name": "id",
          "type": "uint256"
        },
        {
          "internalType": "string",
          "name": "name",
          "type": "string"
        }
      ],
      "stateMutability": "view",
      "type": "function",
      "constant": true
    },
    {
      "inputs": [
        {
          "internalType": "string",
          "name": "name",
          "type": "string"
        }
      ],
      "name": "createUser",
      "outputs": [],
      "stateMutability": "nonpayable",
      "type": "function"
    },
    {
      "inputs": [
        {
          "internalType": "uint256",
          "name": "id",
          "type": "uint256"
        }
      ],
      "name": "read",
      "outputs": [
        {
          "internalType": "uint256",
          "name": "",
          "type": "uint256"
        },
        {
          "internalType": "string",
          "name": "",
          "type": "string"
        }
      ],
      "stateMutability": "view",
      "type": "function",
      "constant": true
    },
    {
      "inputs": [
        {
          "internalType": "uint256",
          "name": "id",
          "type": "uint256"
        },
        {
          "internalType": "string",
          "name": "_newName",
          "type": "string"
        }
      ],
      "name": "update",
      "outputs": [],
      "stateMutability": "nonpayable",
      "type": "function"
    },
    {
      "inputs": [
        {
          "internalType": "uint256",
          "name": "id",
          "type": "uint256"
        }
      ],
      "name": "deleteUser",
      "outputs": [],
      "stateMutability": "nonpayable",
      "type": "function"
    },
    {
      "inputs": [
        {
          "internalType": "uint256",
          "name": "id",
          "type": "uint256"
        }
      ],
      "name": "find",
      "outputs": [
        {
          "internalType": "uint256",
          "name": "",
          "type": "uint256"
        }
      ],
      "stateMutability": "view",
      "type": "function",
      "constant": true
    }
  ],
  "bytecode": "0x60806040526001805534801561001457600080fd5b50610a91806100246000396000f3fe608060405234801561001057600080fd5b50600436106100625760003560e01c8063365b98b21461006757806338f14845146100985780633e530e5b146100b4578063507ffba5146100e4578063ed2e5a9714610100578063f745630f14610131575b600080fd5b610081600480360381019061007c91906105ef565b61014d565b60405161008f9291906106c4565b60405180910390f35b6100b260048036038101906100ad91906105ef565b610209565b005b6100ce60048036038101906100c991906105ef565b610257565b6040516100db91906106f4565b60405180910390f35b6100fe60048036038101906100f99190610844565b6102f5565b005b61011a600480360381019061011591906105ef565b61037b565b6040516101289291906106c4565b60405180910390f35b61014b6004803603810190610146919061088d565b610476565b005b6000818154811061015d57600080fd5b906000526020600020906002020160009150905080600001549080600101805461018690610918565b80601f01602080910402602001604051908101604052809291908181526020018280546101b290610918565b80156101ff5780601f106101d4576101008083540402835291602001916101ff565b820191906000526020600020905b8154815290600101906020018083116101e257829003601f168201915b5050505050905082565b600061021482610257565b90506000818154811061022a57610229610949565b5b906000526020600020906002020160008082016000905560018201600061025191906104c2565b50505050565b600080600090505b6000805490508110156102b457826000828154811061028157610280610949565b5b906000526020600020906002020160000154036102a157809150506102f0565b80806102ac906109a7565b91505061025f565b506040517f08c379a00000000000000000000000000000000000000000000000000000000081526004016102e790610a3b565b60405180910390fd5b919050565b60006040518060400160405280600154815260200183815250908060018154018082558091505060019003906000526020600020906002020160009091909190915060008201518160000155602082015181600101908051906020019061035d929190610502565b50505060016000815480929190610373906109a7565b919050555050565b6000606060006060600061038e86610257565b9050600081815481106103a4576103a3610949565b5b9060005260206000209060020201600001549250600081815481106103cc576103cb610949565b5b906000526020600020906002020160010180546103e890610918565b80601f016020809104026020016040519081016040528092919081815260200182805461041490610918565b80156104615780601f1061043657610100808354040283529160200191610461565b820191906000526020600020905b81548152906001019060200180831161044457829003601f168201915b50505050509150828294509450505050915091565b600061048183610257565b9050816000828154811061049857610497610949565b5b906000526020600020906002020160010190805190602001906104bc929190610502565b50505050565b5080546104ce90610918565b6000825580601f106104e057506104ff565b601f0160209004906000526020600020908101906104fe9190610588565b5b50565b82805461050e90610918565b90600052602060002090601f0160209004810192826105305760008555610577565b82601f1061054957805160ff1916838001178555610577565b82800160010185558215610577579182015b8281111561057657825182559160200191906001019061055b565b5b5090506105849190610588565b5090565b5b808211156105a1576000816000905550600101610589565b5090565b6000604051905090565b600080fd5b600080fd5b6000819050919050565b6105cc816105b9565b81146105d757600080fd5b50565b6000813590506105e9816105c3565b92915050565b600060208284031215610605576106046105af565b5b6000610613848285016105da565b91505092915050565b610625816105b9565b82525050565b600081519050919050565b600082825260208201905092915050565b60005b8381101561066557808201518184015260208101905061064a565b83811115610674576000848401525b50505050565b6000601f19601f8301169050919050565b60006106968261062b565b6106a08185610636565b93506106b0818560208601610647565b6106b98161067a565b840191505092915050565b60006040820190506106d9600083018561061c565b81810360208301526106eb818461068b565b90509392505050565b6000602082019050610709600083018461061c565b92915050565b600080fd5b600080fd5b7f4e487b7100000000000000000000000000000000000000000000000000000000600052604160045260246000fd5b6107518261067a565b810181811067ffffffffffffffff821117156107705761076f610719565b5b80604052505050565b60006107836105a5565b905061078f8282610748565b919050565b600067ffffffffffffffff8211156107af576107ae610719565b5b6107b88261067a565b9050602081019050919050565b82818337600083830152505050565b60006107e76107e284610794565b610779565b90508281526020810184848401111561080357610802610714565b5b61080e8482856107c5565b509392505050565b600082601f83011261082b5761082a61070f565b5b813561083b8482602086016107d4565b91505092915050565b60006020828403121561085a576108596105af565b5b600082013567ffffffffffffffff811115610878576108776105b4565b5b61088484828501610816565b91505092915050565b600080604083850312156108a4576108a36105af565b5b60006108b2858286016105da565b925050602083013567ffffffffffffffff8111156108d3576108d26105b4565b5b6108df85828601610816565b9150509250929050565b7f4e487b7100000000000000000000000000000000000000000000000000000000600052602260045260246000fd5b6000600282049050600182168061093057607f821691505b602082108103610943576109426108e9565b5b50919050565b7f4e487b7100000000000000000000000000000000000000000000000000000000600052603260045260246000fd5b7f4e487b7100000000000000000000000000000000000000000000000000000000600052601160045260246000fd5b60006109b2826105b9565b91507fffffffffffffffffffffffffffffffffffffffffffffffffffffffffffffffff82036109e4576109e3610978565b5b600182019050919050565b7f5573657220646f6573206e6f7420657869737400000000000000000000000000600082015250565b6000610a25601383610636565b9150610a30826109ef565b602082019050919050565b60006020820190508181036000830152610a5481610a18565b905091905056fea2646970667358221220bb4c62018d641eaf3752878f3effd9e77c4a52e624d394abe79624e4f7d7d45064736f6c634300080e0033",
  "immutableReferences": {},
  "source": "// SPDX-License-Identifier: GPL-3.0\r\n\r\npragma solidity >=0.7.0 <0.9.0;\r\n\r\ncontract Crud {\r\n    struct User {\r\n        uint id;\r\n        string name;\r\n    }\r\n\r\n    User[] public users;\r\n    uint nextId = 1;\r\n\r\n    function createUser(string memory name) public {\r\n        users.push(User(nextId, name));\r\n        nextId++;\r\n    }\r\n\r\n    function read(uint id) public view returns(uint, string memory) {\r\n        uint userId;\r\n        string memory name;\r\n        uint i = find(id);\r\n        userId = users[i].id;\r\n        name = users[i].name;\r\n        return(userId, name);\r\n    }\r\n\r\n    function update(uint id, string memory _newName) public {\r\n        uint i = find(id);\r\n        users[i].name = _newName;\r\n    }\r\n\r\n    function deleteUser(uint id) public {\r\n        uint i = find(id);\r\n        delete users[i];\r\n    }\r\n\r\n    function find(uint id) public view returns(uint) {\r\n        for(uint i = 0; i < users.length; i++) {\r\n            if(users[i].id == id) {\r\n                return i;\r\n            }\r\n        }\r\n\r\n        revert(\"User does not exist\");\r\n    }\r\n}",
  "sourcePath": "C:/blockchain/Example/contracts/Crud.sol",
  "compiler": {
    "name": "solc",
    "version": "0.8.14+commit.80d49f37.Emscripten.clang"
  },
  "schemaVersion": "3.4.1",
  "updatedAt": "2022-06-03T21:55:52.549Z",
  "networkType": "ethereum",
  "devdoc": {
    "kind": "dev",
    "methods": {},
    "version": 1
  },
  "userdoc": {
    "kind": "user",
    "methods": {},
    "version": 1
  }
}